{
  "contractName": "Books",
  "abi": [
    {
      "inputs": [
        {
          "internalType": "string",
          "name": "_title",
          "type": "string"
        },
        {
          "internalType": "string",
          "name": "_gender",
          "type": "string"
        },
        {
          "internalType": "uint16",
          "name": "_edition",
          "type": "uint16"
        },
        {
          "internalType": "uint16",
          "name": "_price",
          "type": "uint16"
        }
      ],
      "name": "newBook",
      "outputs": [],
      "stateMutability": "nonpayable",
      "type": "function"
    },
    {
      "inputs": [
        {
          "internalType": "string",
          "name": "_title",
          "type": "string"
        }
      ],
      "name": "seeBook",
      "outputs": [
        {
          "components": [
            {
              "internalType": "string",
              "name": "title",
              "type": "string"
            },
            {
              "internalType": "string",
              "name": "gender",
              "type": "string"
            },
            {
              "internalType": "uint16",
              "name": "edition",
              "type": "uint16"
            },
            {
              "internalType": "uint16",
              "name": "price",
              "type": "uint16"
            }
          ],
          "internalType": "struct Books.book",
          "name": "",
          "type": "tuple"
        }
      ],
      "stateMutability": "view",
      "type": "function"
    }
  ],
  "bytecode": "0x608060405234801561001057600080fd5b50610e26806100206000396000f3fe608060405234801561001057600080fd5b50600436106100365760003560e01c8063632ab3f91461003b578063c0c9eac514610057575b600080fd5b61005560048036038101906100509190610807565b610087565b005b610071600480360381019061006c91906108a6565b61049a565b60405161007e91906109e7565b60405180910390f35b600080805480602002602001604051908101604052809291908181526020016000905b8282101561024057838290600052602060002090600302016040518060800160405290816000820180546100dd90610a38565b80601f016020809104026020016040519081016040528092919081815260200182805461010990610a38565b80156101565780601f1061012b57610100808354040283529160200191610156565b820191906000526020600020905b81548152906001019060200180831161013957829003601f168201915b5050505050815260200160018201805461016f90610a38565b80601f016020809104026020016040519081016040528092919081815260200182805461019b90610a38565b80156101e85780601f106101bd576101008083540402835291602001916101e8565b820191906000526020600020905b8154815290600101906020018083116101cb57829003601f168201915b505050505081526020016002820160009054906101000a900461ffff1661ffff1661ffff1681526020016002820160029054906101000a900461ffff1661ffff1661ffff1681525050815260200190600101906100aa565b50505050905060005b815181101561030e5781818151811061026557610264610a69565b5b6020026020010151600001516040516020016102819190610ad4565b60405160208183030381529060405280519060200120866040516020016102a89190610ad4565b60405160208183030381529060405280519060200120036102fe576040517f08c379a00000000000000000000000000000000000000000000000000000000081526004016102f590610b48565b60405180910390fd5b61030781610636565b9050610249565b50600060405180608001604052808781526020018681526020018561ffff1681526020018461ffff16815250908060018154018082558091505060019003906000526020600020906003020160009091909190915060008201518160000190816103789190610d1e565b50602082015181600101908161038e9190610d1e565b5060408201518160020160006101000a81548161ffff021916908361ffff16021790555060608201518160020160026101000a81548161ffff021916908361ffff160217905550505060405180608001604052808681526020018581526020018461ffff1681526020018361ffff168152506001866040516104109190610ad4565b908152602001604051809103902060008201518160000190816104339190610d1e565b5060208201518160010190816104499190610d1e565b5060408201518160020160006101000a81548161ffff021916908361ffff16021790555060608201518160020160026101000a81548161ffff021916908361ffff1602179055509050505050505050565b6104a2610643565b6001826040516104b29190610ad4565b90815260200160405180910390206040518060800160405290816000820180546104db90610a38565b80601f016020809104026020016040519081016040528092919081815260200182805461050790610a38565b80156105545780601f1061052957610100808354040283529160200191610554565b820191906000526020600020905b81548152906001019060200180831161053757829003601f168201915b5050505050815260200160018201805461056d90610a38565b80601f016020809104026020016040519081016040528092919081815260200182805461059990610a38565b80156105e65780601f106105bb576101008083540402835291602001916105e6565b820191906000526020600020905b8154815290600101906020018083116105c957829003601f168201915b505050505081526020016002820160009054906101000a900461ffff1661ffff1661ffff1681526020016002820160029054906101000a900461ffff1661ffff1661ffff16815250509050919050565b6000600182019050919050565b60405180608001604052806060815260200160608152602001600061ffff168152602001600061ffff1681525090565b6000604051905090565b600080fd5b600080fd5b600080fd5b600080fd5b6000601f19601f8301169050919050565b7f4e487b7100000000000000000000000000000000000000000000000000000000600052604160045260246000fd5b6106da82610691565b810181811067ffffffffffffffff821117156106f9576106f86106a2565b5b80604052505050565b600061070c610673565b905061071882826106d1565b919050565b600067ffffffffffffffff821115610738576107376106a2565b5b61074182610691565b9050602081019050919050565b82818337600083830152505050565b600061077061076b8461071d565b610702565b90508281526020810184848401111561078c5761078b61068c565b5b61079784828561074e565b509392505050565b600082601f8301126107b4576107b3610687565b5b81356107c484826020860161075d565b91505092915050565b600061ffff82169050919050565b6107e4816107cd565b81146107ef57600080fd5b50565b600081359050610801816107db565b92915050565b600080600080608085870312156108215761082061067d565b5b600085013567ffffffffffffffff81111561083f5761083e610682565b5b61084b8782880161079f565b945050602085013567ffffffffffffffff81111561086c5761086b610682565b5b6108788782880161079f565b9350506040610889878288016107f2565b925050606061089a878288016107f2565b91505092959194509250565b6000602082840312156108bc576108bb61067d565b5b600082013567ffffffffffffffff8111156108da576108d9610682565b5b6108e68482850161079f565b91505092915050565b600081519050919050565b600082825260208201905092915050565b60005b8381101561092957808201518184015260208101905061090e565b60008484015250505050565b6000610940826108ef565b61094a81856108fa565b935061095a81856020860161090b565b61096381610691565b840191505092915050565b610977816107cd565b82525050565b6000608083016000830151848203600086015261099a8282610935565b915050602083015184820360208601526109b48282610935565b91505060408301516109c9604086018261096e565b5060608301516109dc606086018261096e565b508091505092915050565b60006020820190508181036000830152610a01818461097d565b905092915050565b7f4e487b7100000000000000000000000000000000000000000000000000000000600052602260045260246000fd5b60006002820490506001821680610a5057607f821691505b602082108103610a6357610a62610a09565b5b50919050565b7f4e487b7100000000000000000000000000000000000000000000000000000000600052603260045260246000fd5b600081905092915050565b6000610aae826108ef565b610ab88185610a98565b9350610ac881856020860161090b565b80840191505092915050565b6000610ae08284610aa3565b915081905092915050565b600082825260208201905092915050565b7f426f6f6b2065786973747320696e20746865206c697374000000000000000000600082015250565b6000610b32601783610aeb565b9150610b3d82610afc565b602082019050919050565b60006020820190508181036000830152610b6181610b25565b9050919050565b60008190508160005260206000209050919050565b60006020601f8301049050919050565b600082821b905092915050565b600060088302610bca7fffffffffffffffffffffffffffffffffffffffffffffffffffffffffffffffff82610b8d565b610bd48683610b8d565b95508019841693508086168417925050509392505050565b6000819050919050565b6000819050919050565b6000610c1b610c16610c1184610bec565b610bf6565b610bec565b9050919050565b6000819050919050565b610c3583610c00565b610c49610c4182610c22565b848454610b9a565b825550505050565b600090565b610c5e610c51565b610c69818484610c2c565b505050565b5b81811015610c8d57610c82600082610c56565b600181019050610c6f565b5050565b601f821115610cd257610ca381610b68565b610cac84610b7d565b81016020851015610cbb578190505b610ccf610cc785610b7d565b830182610c6e565b50505b505050565b600082821c905092915050565b6000610cf560001984600802610cd7565b1980831691505092915050565b6000610d0e8383610ce4565b9150826002028217905092915050565b610d27826108ef565b67ffffffffffffffff811115610d4057610d3f6106a2565b5b610d4a8254610a38565b610d55828285610c91565b600060209050601f831160018114610d885760008415610d76578287015190505b610d808582610d02565b865550610de8565b601f198416610d9686610b68565b60005b82811015610dbe57848901518255600182019150602085019450602081019050610d99565b86831015610ddb5784890151610dd7601f891682610ce4565b8355505b6001600288020188555050505b50505050505056fea2646970667358221220cd8f53c8634b51806cea62bd11c6943b95f681aac1d0621c6f5365bd9ee8763864736f6c63430008100033",
  "immutableReferences": {},
  "source": "// SPDX-License-Identifier: MIT-3.0\r\n\r\npragma solidity ^0.8.0;\r\npragma experimental ABIEncoderV2;\r\n\r\n// contrato ejemplo de factory\r\n\r\ncontract Books{\r\n    \r\n    struct book{\r\n        string title;\r\n        string gender;\r\n        uint16 edition;\r\n        uint16 price;\r\n    }\r\n\r\n    //array books list\r\n    book[] listbooks;\r\n\r\n    //mapping book\r\n    mapping(string => book) mapbooks;\r\n\r\n    //funcion de la aritmetica no comprobada\r\n    function  unsafe_inc(uint x) private pure returns(uint){\r\n     unchecked{return x + 1;}\r\n    }\r\n    //\r\n    function newBook(string memory _title, string memory _gender, uint16 _edition, uint16 _price) public {\r\n\r\n        book[] memory newlistbook = listbooks; //declaro una variable para interactuar con ella y no con la variable en EVM,asi se ahorra gas\r\n        for(uint256 i = 0; i < newlistbook.length; i = unsafe_inc(i)){\r\n            require(keccak256(abi.encodePacked(_title)) != keccak256(abi.encodePacked(newlistbook[i].title)),\"Book exists in the list\");\r\n        }\r\n        listbooks.push(book(_title, _gender, _edition, _price));\r\n        mapbooks[_title] = book(_title, _gender, _edition, _price);\r\n    }\r\n\r\n    //funcion para mostrar el mapping con el libro especifico\r\n    function seeBook(string memory _title) public view returns(book memory){\r\n        return mapbooks[_title];\r\n    }\r\n\r\n}\r\n//contrato fabrica de libros\r\n   contract booksfactory is Books{\r\n    Books[] public books; //referenciando el contrato de libros\r\n    function createBooks() public {\r\n       Books newbooks = new Books();\r\n       books.push(newbooks);     \r\n    }\r\n\r\n   }",
  "sourcePath": "D:\\cursoSolidity\\ContractFactory\\contracts\\Bookfactoy.sol",
  "compiler": {
    "name": "solc",
    "version": "0.8.16+commit.07a7930e.Emscripten.clang"
  },
  "schemaVersion": "3.4.9",
  "updatedAt": "2022-09-26T18:55:30.697Z",
  "devdoc": {
    "kind": "dev",
    "methods": {},
    "version": 1
  },
  "userdoc": {
    "kind": "user",
    "methods": {},
    "version": 1
  }
}